{
    "contractName": "UniswapV2Pair",
    "abi": [
        {
            "inputs": [],
            "stateMutability": "nonpayable",
            "type": "constructor"
        },
        {
            "anonymous": false,
            "inputs": [
                {
                    "indexed": true,
                    "internalType": "address",
                    "name": "owner",
                    "type": "address"
                },
                {
                    "indexed": true,
                    "internalType": "address",
                    "name": "spender",
                    "type": "address"
                },
                {
                    "indexed": false,
                    "internalType": "uint256",
                    "name": "value",
                    "type": "uint256"
                }
            ],
            "name": "Approval",
            "type": "event"
        },
        {
            "anonymous": false,
            "inputs": [
                {
                    "indexed": true,
                    "internalType": "address",
                    "name": "sender",
                    "type": "address"
                },
                {
                    "indexed": false,
                    "internalType": "uint256",
                    "name": "amount0",
                    "type": "uint256"
                },
                {
                    "indexed": false,
                    "internalType": "uint256",
                    "name": "amount1",
                    "type": "uint256"
                },
                {
                    "indexed": true,
                    "internalType": "address",
                    "name": "to",
                    "type": "address"
                }
            ],
            "name": "Burn",
            "type": "event"
        },
        {
            "anonymous": false,
            "inputs": [
                {
                    "indexed": true,
                    "internalType": "address",
                    "name": "sender",
                    "type": "address"
                },
                {
                    "indexed": false,
                    "internalType": "uint256",
                    "name": "amount0",
                    "type": "uint256"
                },
                {
                    "indexed": false,
                    "internalType": "uint256",
                    "name": "amount1",
                    "type": "uint256"
                }
            ],
            "name": "Mint",
            "type": "event"
        },
        {
            "anonymous": false,
            "inputs": [
                {
                    "indexed": true,
                    "internalType": "address",
                    "name": "sender",
                    "type": "address"
                },
                {
                    "indexed": false,
                    "internalType": "uint256",
                    "name": "amount0In",
                    "type": "uint256"
                },
                {
                    "indexed": false,
                    "internalType": "uint256",
                    "name": "amount1In",
                    "type": "uint256"
                },
                {
                    "indexed": false,
                    "internalType": "uint256",
                    "name": "amount0Out",
                    "type": "uint256"
                },
                {
                    "indexed": false,
                    "internalType": "uint256",
                    "name": "amount1Out",
                    "type": "uint256"
                },
                {
                    "indexed": true,
                    "internalType": "address",
                    "name": "to",
                    "type": "address"
                }
            ],
            "name": "Swap",
            "type": "event"
        },
        {
            "anonymous": false,
            "inputs": [
                {
                    "indexed": false,
                    "internalType": "uint112",
                    "name": "reserve0",
                    "type": "uint112"
                },
                {
                    "indexed": false,
                    "internalType": "uint112",
                    "name": "reserve1",
                    "type": "uint112"
                }
            ],
            "name": "Sync",
            "type": "event"
        },
        {
            "anonymous": false,
            "inputs": [
                {
                    "indexed": true,
                    "internalType": "address",
                    "name": "from",
                    "type": "address"
                },
                {
                    "indexed": true,
                    "internalType": "address",
                    "name": "to",
                    "type": "address"
                },
                {
                    "indexed": false,
                    "internalType": "uint256",
                    "name": "value",
                    "type": "uint256"
                }
            ],
            "name": "Transfer",
            "type": "event"
        },
        {
            "inputs": [],
            "name": "DOMAIN_SEPARATOR",
            "outputs": [
                {
                    "internalType": "bytes32",
                    "name": "",
                    "type": "bytes32"
                }
            ],
            "stateMutability": "view",
            "type": "function"
        },
        {
            "inputs": [],
            "name": "MINIMUM_LIQUIDITY",
            "outputs": [
                {
                    "internalType": "uint256",
                    "name": "",
                    "type": "uint256"
                }
            ],
            "stateMutability": "view",
            "type": "function"
        },
        {
            "inputs": [],
            "name": "PERMIT_TYPEHASH",
            "outputs": [
                {
                    "internalType": "bytes32",
                    "name": "",
                    "type": "bytes32"
                }
            ],
            "stateMutability": "view",
            "type": "function"
        },
        {
            "inputs": [
                {
                    "internalType": "address",
                    "name": "",
                    "type": "address"
                },
                {
                    "internalType": "address",
                    "name": "",
                    "type": "address"
                }
            ],
            "name": "allowance",
            "outputs": [
                {
                    "internalType": "uint256",
                    "name": "",
                    "type": "uint256"
                }
            ],
            "stateMutability": "view",
            "type": "function"
        },
        {
            "inputs": [
                {
                    "internalType": "address",
                    "name": "spender",
                    "type": "address"
                },
                {
                    "internalType": "uint256",
                    "name": "value",
                    "type": "uint256"
                }
            ],
            "name": "approve",
            "outputs": [
                {
                    "internalType": "bool",
                    "name": "",
                    "type": "bool"
                }
            ],
            "stateMutability": "nonpayable",
            "type": "function"
        },
        {
            "inputs": [
                {
                    "internalType": "address",
                    "name": "",
                    "type": "address"
                }
            ],
            "name": "balanceOf",
            "outputs": [
                {
                    "internalType": "uint256",
                    "name": "",
                    "type": "uint256"
                }
            ],
            "stateMutability": "view",
            "type": "function"
        },
        {
            "inputs": [],
            "name": "decimals",
            "outputs": [
                {
                    "internalType": "uint8",
                    "name": "",
                    "type": "uint8"
                }
            ],
            "stateMutability": "view",
            "type": "function"
        },
        {
            "inputs": [],
            "name": "factory",
            "outputs": [
                {
                    "internalType": "address",
                    "name": "",
                    "type": "address"
                }
            ],
            "stateMutability": "view",
            "type": "function"
        },
        {
            "inputs": [],
            "name": "getReserves",
            "outputs": [
                {
                    "internalType": "uint112",
                    "name": "_reserve0",
                    "type": "uint112"
                },
                {
                    "internalType": "uint112",
                    "name": "_reserve1",
                    "type": "uint112"
                },
                {
                    "internalType": "uint32",
                    "name": "_blockTimestampLast",
                    "type": "uint32"
                }
            ],
            "stateMutability": "view",
            "type": "function"
        },
        {
            "inputs": [
                {
                    "internalType": "address",
                    "name": "_token0",
                    "type": "address"
                },
                {
                    "internalType": "address",
                    "name": "_token1",
                    "type": "address"
                }
            ],
            "name": "initialize",
            "outputs": [],
            "stateMutability": "nonpayable",
            "type": "function"
        },
        {
            "inputs": [],
            "name": "kLast",
            "outputs": [
                {
                    "internalType": "uint256",
                    "name": "",
                    "type": "uint256"
                }
            ],
            "stateMutability": "view",
            "type": "function"
        },
        {
            "inputs": [],
            "name": "name",
            "outputs": [
                {
                    "internalType": "string",
                    "name": "",
                    "type": "string"
                }
            ],
            "stateMutability": "view",
            "type": "function"
        },
        {
            "inputs": [
                {
                    "internalType": "address",
                    "name": "",
                    "type": "address"
                }
            ],
            "name": "nonces",
            "outputs": [
                {
                    "internalType": "uint256",
                    "name": "",
                    "type": "uint256"
                }
            ],
            "stateMutability": "view",
            "type": "function"
        },
        {
            "inputs": [
                {
                    "internalType": "address",
                    "name": "owner",
                    "type": "address"
                },
                {
                    "internalType": "address",
                    "name": "spender",
                    "type": "address"
                },
                {
                    "internalType": "uint256",
                    "name": "value",
                    "type": "uint256"
                },
                {
                    "internalType": "uint256",
                    "name": "deadline",
                    "type": "uint256"
                },
                {
                    "internalType": "uint8",
                    "name": "v",
                    "type": "uint8"
                },
                {
                    "internalType": "bytes32",
                    "name": "r",
                    "type": "bytes32"
                },
                {
                    "internalType": "bytes32",
                    "name": "s",
                    "type": "bytes32"
                }
            ],
            "name": "permit",
            "outputs": [],
            "stateMutability": "nonpayable",
            "type": "function"
        },
        {
            "inputs": [],
            "name": "price0CumulativeLast",
            "outputs": [
                {
                    "internalType": "uint256",
                    "name": "",
                    "type": "uint256"
                }
            ],
            "stateMutability": "view",
            "type": "function"
        },
        {
            "inputs": [],
            "name": "price1CumulativeLast",
            "outputs": [
                {
                    "internalType": "uint256",
                    "name": "",
                    "type": "uint256"
                }
            ],
            "stateMutability": "view",
            "type": "function"
        },
        {
            "inputs": [],
            "name": "symbol",
            "outputs": [
                {
                    "internalType": "string",
                    "name": "",
                    "type": "string"
                }
            ],
            "stateMutability": "view",
            "type": "function"
        },
        {
            "inputs": [],
            "name": "token0",
            "outputs": [
                {
                    "internalType": "address",
                    "name": "",
                    "type": "address"
                }
            ],
            "stateMutability": "view",
            "type": "function"
        },
        {
            "inputs": [],
            "name": "token1",
            "outputs": [
                {
                    "internalType": "address",
                    "name": "",
                    "type": "address"
                }
            ],
            "stateMutability": "view",
            "type": "function"
        },
        {
            "inputs": [],
            "name": "totalSupply",
            "outputs": [
                {
                    "internalType": "uint256",
                    "name": "",
                    "type": "uint256"
                }
            ],
            "stateMutability": "view",
            "type": "function"
        },
        {
            "inputs": [
                {
                    "internalType": "address",
                    "name": "to",
                    "type": "address"
                },
                {
                    "internalType": "uint256",
                    "name": "value",
                    "type": "uint256"
                }
            ],
            "name": "transfer",
            "outputs": [
                {
                    "internalType": "bool",
                    "name": "",
                    "type": "bool"
                }
            ],
            "stateMutability": "nonpayable",
            "type": "function"
        },
        {
            "inputs": [
                {
                    "internalType": "address",
                    "name": "from",
                    "type": "address"
                },
                {
                    "internalType": "address",
                    "name": "to",
                    "type": "address"
                },
                {
                    "internalType": "uint256",
                    "name": "value",
                    "type": "uint256"
                }
            ],
            "name": "transferFrom",
            "outputs": [
                {
                    "internalType": "bool",
                    "name": "",
                    "type": "bool"
                }
            ],
            "stateMutability": "nonpayable",
            "type": "function"
        }
    ],
    "bytecode": "6080604052346100ef576040516100176040826100f3565b600a8152692ab734b9bbb0b8102b1960b11b602090910152604080517fbfcc8ef98ffbf7b6c3fec7bf5185b566b9863e35a9d83acd49ad6824b59697389161005f90826100f3565b600181526020810190603160f81b82525190206040519060208201927f8b73c3c69bb8fe3d512ecc4cf759cc79239f7b179b0ffacaa9a75d522b39400f8452604083015260608201524660808201523060a082015260a081526100c360c0826100f3565b5190206003556001600c55600580546001600160a01b03191633179055604051610927908161012b8239f35b5f80fd5b601f909101601f19168101906001600160401b0382119082101761011657604052565b634e487b7160e01b5f52604160045260245ffdfe60806040526004361015610011575f80fd5b5f3560e01c806306fdde03146107465780630902f1ac14610705578063095ea7b3146106df5780630dfe1681146106b757806318160ddd1461069b57806323b872dd1461061157806330adf81f146105d7578063313ce567146105bc5780633644e5151461059f578063485cc955146104fc5780635909c0d5146104df5780635a3d5493146104c257806370a082311461048a5780637464fc3d1461046d5780637ecebe001461043557806395d89b41146103f1578063a9059cbb146103c0578063ba9a7a56146103a4578063c45a01551461037c578063d21220a714610354578063d505accf1461015f5763dd62ed3e1461010b575f80fd5b3461015b57604036600319011261015b576101246107ea565b61012c610800565b6001600160a01b039182165f908152600260209081526040808320949093168252928352819020549051908152f35b5f80fd5b3461015b5760e036600319011261015b576101786107ea565b610180610800565b604435906064356084359060ff821680920361015b5742811061031a576003549060018060a01b03861692835f52600460205260405f20908154935f19851461030657845f94608094600160209801905560405190878201927f6e71edae12b1b97f4d1f60370fef10105fa2faae0126114a169c64845d6126c9845289604084015260018060a01b038b1660608401528b8784015260a083015260c082015260c0815261022e60e08261078a565b519020604051908682019261190160f01b8452602283015260428201526042815261025a60628261078a565b519020906040519182528482015260a435604082015260c435606082015282805260015afa156102fb575f516001600160a01b03168015159190826102f1575b5050156102ac576102aa92610823565b005b60405162461bcd60e51b815260206004820152601c60248201527f556e697377617056323a20494e56414c49445f5349474e4154555245000000006044820152606490fd5b149050848061029a565b6040513d5f823e3d90fd5b634e487b7160e01b5f52601160045260245ffd5b60405162461bcd60e51b8152602060048201526012602482015271155b9a5cddd85c158c8e881156141254915160721b6044820152606490fd5b3461015b575f36600319011261015b576007546040516001600160a01b039091168152602090f35b3461015b575f36600319011261015b576005546040516001600160a01b039091168152602090f35b3461015b575f36600319011261015b5760206040516103e88152f35b3461015b57604036600319011261015b576103e66103dc6107ea565b602435903361087c565b602060405160018152f35b3461015b575f36600319011261015b5761043160405161041260408261078a565b60068152652aa72496ab1960d11b6020820152604051918291826107c0565b0390f35b3461015b57602036600319011261015b576001600160a01b036104566107ea565b165f526004602052602060405f2054604051908152f35b3461015b575f36600319011261015b576020600b54604051908152f35b3461015b57602036600319011261015b576001600160a01b036104ab6107ea565b165f526001602052602060405f2054604051908152f35b3461015b575f36600319011261015b576020600a54604051908152f35b3461015b575f36600319011261015b576020600954604051908152f35b3461015b57604036600319011261015b576105156107ea565b61051d610800565b6005549091906001600160a01b0316330361056357600680546001600160a01b039283166001600160a01b03199182161790915560078054939092169216919091179055005b60405162461bcd60e51b81526020600482015260146024820152732ab734b9bbb0b82b191d102327a92124a22222a760611b6044820152606490fd5b3461015b575f36600319011261015b576020600354604051908152f35b3461015b575f36600319011261015b57602060405160128152f35b3461015b575f36600319011261015b5760206040517f6e71edae12b1b97f4d1f60370fef10105fa2faae0126114a169c64845d6126c98152f35b3461015b57606036600319011261015b576103e661062d6107ea565b610635610800565b6001600160a01b0382165f8181526002602090815260408083203384529091529020546044359391908460018201610670575b50505061087c565b61067991610816565b5f91825260026020908152604080842033855290915290912055848084610668565b3461015b575f36600319011261015b5760205f54604051908152f35b3461015b575f36600319011261015b576006546040516001600160a01b039091168152602090f35b3461015b57604036600319011261015b576103e66106fb6107ea565b6024359033610823565b3461015b575f36600319011261015b576060600854604051906001600160701b03811682526001600160701b038160701c16602083015260e01c6040820152f35b3461015b575f36600319011261015b5761043160405161076760408261078a565b600a8152692ab734b9bbb0b8102b1960b11b6020820152604051918291826107c0565b90601f8019910116810190811067ffffffffffffffff8211176107ac57604052565b634e487b7160e01b5f52604160045260245ffd5b602060409281835280519182918282860152018484015e5f828201840152601f01601f1916010190565b600435906001600160a01b038216820361015b57565b602435906001600160a01b038216820361015b57565b9190820391821161030657565b6001600160a01b039081165f8181526002602090815260408083209590941680835294815290839020859055915193845291927f8c5be1e5ebec7d5bd14f71427d1e84f3dd0314c0f7b2291e5b200ac8c7c3b9259190a3565b60018060a01b031690815f52600160205260405f2061089c848254610816565b90556001600160a01b03165f81815260016020526040902080549193828101928310610306577fddf252ad1be2c89b69c2b068fc378daa952ba7f163c4a11628f55a4df523b3ef9260209255604051908152a356fea264697066735822122026240b059732f9e7347f124a0f3e02a9e14ecdf7ac67a193c03e517e5785189f64736f6c63430008230033",
    "sourcePath": "/Users/pranaykargam/Desktop/UniSwap V2/UniSwapV2/src/UniSwapV2Pair.sol",
    "compiler": {
        "name": "solc",
        "version": "0.8.35+commit.47b9dedd"
    },
    "functionHashes": {
        "DOMAIN_SEPARATOR()": "3644e515",
        "MINIMUM_LIQUIDITY()": "ba9a7a56",
        "PERMIT_TYPEHASH()": "30adf81f",
        "allowance(address,address)": "dd62ed3e",
        "approve(address,uint256)": "095ea7b3",
        "balanceOf(address)": "70a08231",
        "decimals()": "313ce567",
        "factory()": "c45a0155",
        "getReserves()": "0902f1ac",
        "initialize(address,address)": "485cc955",
        "kLast()": "7464fc3d",
        "name()": "06fdde03",
        "nonces(address)": "7ecebe00",
        "permit(address,address,uint256,uint256,uint8,bytes32,bytes32)": "d505accf",
        "price0CumulativeLast()": "5909c0d5",
        "price1CumulativeLast()": "5a3d5493",
        "symbol()": "95d89b41",
        "token0()": "0dfe1681",
        "token1()": "d21220a7",
        "totalSupply()": "18160ddd",
        "transfer(address,uint256)": "a9059cbb",
        "transferFrom(address,address,uint256)": "23b872dd"
    },
    "gasEstimates": {
        "creation": {
            "codeDepositCost": "468600",
            "executionCost": "infinite",
            "totalCost": "infinite"
        },
        "external": {
            "DOMAIN_SEPARATOR()": "2424",
            "MINIMUM_LIQUIDITY()": "519",
            "PERMIT_TYPEHASH()": "277",
            "allowance(address,address)": "3024",
            "approve(address,uint256)": "24372",
            "balanceOf(address)": "2662",
            "decimals()": "299",
            "factory()": "2668",
            "getReserves()": "2354",
            "initialize(address,address)": "51119",
            "kLast()": "2534",
            "name()": "433",
            "nonces(address)": "2706",
            "permit(address,address,uint256,uint256,uint8,bytes32,bytes32)": "infinite",
            "price0CumulativeLast()": "2468",
            "price1CumulativeLast()": "2490",
            "symbol()": "763",
            "token0()": "2338",
            "token1()": "2690",
            "totalSupply()": "2335",
            "transfer(address,uint256)": "51067",
            "transferFrom(address,address,uint256)": "53194"
        },
        "internal": {
            "_safeTransfer(address,address,uint256)": "infinite",
            "_update(uint256,uint256,uint112,uint112)": "infinite"
        }
    }
}